:020000040800F2
:1000000000040020790300087B0300087B0300083C
:100010007B0300087B0300087B0300087B030008C8
:100020007B0300087B0300087B030008613700089E
:100030007B0300087B0300087B0300087B030008A8
:100040007B0300087B0300087B0300087B03000898
:100050007B0300087B0300087B0300087B03000888
:100060007B0300087B0300087B0300085145000860
:1000700011450008D144000891440008514400088B
:1000800011440008D14300087B0300087B030008EB
:100090007B0300087B0300087B0300087B03000848
:1000A0007B0300087B0300087B0300087B03000838
:1000B000914700087B0300087B0300087B030008CE
:1000C0007B0300087B0300087B030008513C000809
:1000D0007B0300087B0300087B03000861480008DD
:1000E0007B0300087B0300087B0300087B030008F8
:1000F0007B0300087B0300087B0300089143000892
:100100007B030008014A00087B0300087B0300080A
:100110007B0300087B0300087B0300087B030008C7
:100120005143000811430008D142000891420008E1
:10013000514200087B0300087B0300087B03000892
:100140007B0300087B0300087B0300087B03000897
:1001500011420008D1410008914100087B030008CA
:100160007B0300087B0300087B0300087B03000877
:100170007B0300087B0300087B0300087B03000867
:100180007B0300087B0300087B0300087B03000857
:100190007B0300087B030008213C00087B03000868
:1001A0007B0300087B0300087B0300087B03000837
:1001B0007B0300087B0300087B0300087B03000827
:1001C0007B0300087B0300087B0300087B03000817
:1001D0007B030008813C00087B0300087B030008C8
:1001E0007B0300087B0300087B0300087B030008F7
:1001F0007B0300087B0300087B0300087B030008E7
:100200007B0300087B0300087B0300087B030008D6
:100210007B0300087B0300087B0300087B030008C6
:100220007B0300087B0300087B0300087B030008B6
:100230007B0300087B0300087B0300087B030008A6
:100240007B0300085147000811470008D146000809
:10025000914600085146000811460008D1450008A3
:10026000914500087B0300087B0300087B0300081E
:100270007B0300087B0300087B0300087B03000866
:100280007B0300087B0300087B0300087B03000856
:100290007B0300087B0300087B0300087B03000846
:1002A00072B6274880F30888264880F309882648D4
:1002B0004EF60851CEF200010860022080F3148847
:1002C000BFF36F8F04F004FC03F0B2FA4FF0553027
:1002D0001E491B4A91423CBF41F8040BFAE71C49F6
:1002E000184A91423CBF41F8040BFAE719491A4AEF
:1002F0001A4B9A423EBF51F8040B42F8040BF8E740
:1003000000201749174A91423CBF41F8040BFAE715
:1003100004F096FB04F0D4FB134C144DAC4203DA0A
:1003200054F8041B8847F9E702F082FD104C114D88
:10033000AC4203DA54F8041B8847F9E704F0B8BB71
:100340000004002000080020000000080000002039
:1003500000040020285100080000002408000024A8
:100360000800002480140024A0020008A002000855
:10037000A0020008A002000892E700F000F8FEE7E3
:100380002DE9F04FC1F80CD0D0F80CD0BDE8F08FBB
:10039000002383F311882846A047002003F0F0F9DA
:1003A000FEE703F015FA00DFFEE70000844641EAAD
:1003B000000313F003036DD1403A41D351F8043BDD
:1003C00040F8043B51F8043B40F8043B51F8043B2F
:1003D00040F8043B51F8043B40F8043B51F8043B1F
:1003E00040F8043B51F8043B40F8043B51F8043B0F
:1003F00040F8043B51F8043B40F8043B51F8043BFF
:1004000040F8043B51F8043B40F8043B51F8043BEE
:1004100040F8043B51F8043B40F8043B51F8043BDE
:1004200040F8043B51F8043B40F8043B51F8043BCE
:1004300040F8043B51F8043B40F8043B403ABDD23D
:10044000303211D351F8043B40F8043B51F8043BDF
:1004500040F8043B51F8043B40F8043B51F8043B9E
:1004600040F8043B103AEDD20C3205D351F8043B6E
:1004700040F8043B043AF9D2043208D0D2071CBF3A
:1004800011F8013B00F8013B01D30B880380604663
:10049000704700BF082A13D38B078DD010F00303D9
:1004A0008AD0C3F10403D21ADB071CBF11F8013B49
:1004B00000F8013B80D331F8023B20F8023B7BE798
:1004C000043AD9D3013A11F8013B00F8013BF9D2C3
:1004D0000B7803704B7843708B788370604670475D
:1004E000224B03EB8002D2682DE9F043804650692D
:1004F000D3F89090D0E90047BC4228D908F1010513
:10050000B2F810E009EB481C09EB0535E41BDCF8F8
:10051000183974459BB228BF7446B4EB830F21D8B9
:100520008668042C33682B600AD9611F334621F09A
:1005300003010431314453F8042F99422A60FAD15F
:10054000274426440468BC42C0E90176DED8012075
:10055000D9F8343800FA08F823EA0803C9F834381F
:10056000BDE8F0830020BDE8F08300BFA8070024A9
:10057000202330B483F311880B4B4942D3E9004563
:10058000281A0840821AA24207D3954205D35A601E
:10059000002383F3118830BC70470020002383F3CD
:1005A000118830BC704700BF2812002400000000F2
:1005B000024A136843F0C0031360704700480040CC
:1005C000022906D0032906D00129074818BF0020B8
:1005D000704706487047032A03D8054800EBC2005D
:1005E00070470020704700BF2C500008E04F000803
:1005F000B4500008000000000000000000000000EF
:10060000202383F311880D4B5B6813F4006302D140
:1006100083F311887047EFF309834FF08072203B1A
:10062000DA6183F30988064A1168926989689268D9
:1006300091428CBF034A044A9A61704700ED00E082
:1006400088080024A3030008A60300080000000097
:10065000084B49425A68101A10B408401C68A0425E
:1006600004D3824202D310BC58607047002010BCF3
:10067000704700BF281200240000000000000000A6
:100680000E4B0F4A5B68D2F87C28C1689B1A4268FF
:10069000013130B48468C1601B1BD0E9044583601C
:1006A000E41845F100059342026888BF4360934215
:1006B000C0E9044538BF036030BC7047001000E05B
:1006C0008808002400000000000000000000000076
:1006D000014B5B6883607047001000E00000000081
:1006E000202383F3118890F82030072B0DD8DFE802
:1006F00003F0270C0C2308040C08426A93680133AA
:100700009360D0E9003213605A60002281680E4B7A
:1007100080F8202010B44FF0FF3444621B689A68C0
:100720008A42FBD25A680021C0E90032106058604A
:1007300081F3118810BC7047436A00221A60E4E715
:10074000002383F31188704788080024000000000C
:100750000022074B816880F820201B689A688A4233
:10076000FBD25A68C0E9003210605860704700BF81
:1007700088080024000000000000000000000000C5
:1007800038B50446006884420AD06FF0010503685A
:1007900023605C604562FFF7DBFF2068A042F6D172
:1007A00038BD00BF00000000000000000000000095
:1007B00003460068834206D0026800211A60536035
:1007C0004162FFF7C5BF7047000000000000000055
:1007D000F8B50468A04221D007460D46002604E083
:1007E0000B2A1CD02468A74218D0E3682B43E3608F
:1007F00015B123691D42F5D0D4E90103416B90F88E
:1008000020200B430A2A4363EAD1426A1342E9D00B
:100810004662FFF79DFF2468A742E6D1F8BD426A11
:1008200032EA0303DED1F3E700000000000000001D
:100830000B4A4FF0804130B4536B02F638004D6ADA
:10084000084C5D601968646864F31F2143F8101B4D
:10085000834228BF02F1380330BC5363704700BFA6
:1008600088080024001000E00000000000000000E4
:1008700090F820300549DB00406A4A6B43F00103E1
:1008800013708B69C2E90230FFF7D2BF88080024D9
:10089000094A138E10B513F0020400D010BD2023B6
:1008A00083F311880321536B98601970FFF7C0FF21
:1008B00084F3118810BD00BF8808002400000000E8
:1008C000094A138E10B513F0020400D010BD202386
:1008D00083F311880221536B98601970FFF7A8FF0A
:1008E00084F3118810BD00BF8808002400000000B8
:1008F000034A516853685B1A9842FBD8704700BF9F
:10090000001000E0000000000000000000000000F7
:10091000FEE700BF00000000000000000000000033
:1009200000207047000000000000000000000000F0
:1009300001207047000000000000000000000000DF
:1009400001F001038A0748BF43F002034A0748BF8A
:1009500043F008030A0748BF43F00403CA0648BF30
:1009600043F010038A06026848BF43F02003134394
:10097000036070470000000000000000000000005D
:1009800010B541F49851046CA260E160616B11F004
:100990004502FBD0A26311F03F0209D1216A104643
:1009A0001960E2695A60A2699A606269DA6010BDF2
:1009B0003430FFF7C5FF012010BD00BF000000006C
:1009C00010B541F48851046CA260E160616B11F0D4
:1009D0004502FBD0A26311F0050203D16169104604
:1009E000196010BD3430FFF7ABFF012010BD00BF10
:1009F000036C70B50D4616465A6B0446596B34307D
:100A00009963FFF79DFF012D00D870BD3346204646
:100A100000220C21BDE87040FFF7D2BF00000000AB
:100A200000EB810370B4DC6862691368D360FBB9C2
:100A3000D0F890204FF4002002EB4113C3F81009C6
:100A4000236803F00303012B29D008B202EB401006
:100A50000123D0F8004903FA01F144F00444C0F83E
:100A60000049D2F83438194370BCC2F834187047C2
:100A700009B9402B24D8258AD0F89020681E02EBB3
:100A800041161844B0FBF5F043EAC04343F000536D
:100A9000C6F81039236803F00303012BD5D1D2F82F
:100AA000083808B213F4807F02EB4113D3F80049F1
:100AB00014BF44F0805444F00054C3F80049C5E723
:100AC00040252B461560D6E700000000000000001E
:100AD000204AF8B5D2F89060044606EB4013D3F8EC
:100AE0000859E807C3F8085903D5D6F81038D907CC
:100AF00008D42B0605D50123D6F83428A340134289
:100B000015D1F8BD02EB8403D86843691F68D96822
:100B10008F4211D3012113898768A14023EA010381
:100B20001381002FE5D010462146B847E1E7204663
:100B3000BDE8F840FFF7D4BCC91B00272020C3E95B
:100B4000001780F3118810462146FFF769FF87F3ED
:100B50001188CEE7A8070024000000000000000074
:100B600000EB810370B4DC68A3691E68DE6009B91C
:100B7000402E24D8638A24685A1ED0F8900004F0CE
:100B80000304324400EB4115012CB2FBF3F202FBEB
:100B900003F303F1030323F0030343EAC24343F0E7
:100BA000C043C5F8103B0ED009B200EB4111D1F89B
:100BB000003B43F0044370BCC1F8003B7047402247
:100BC00016461A60D6E7D0F8083800EB411209B291
:100BD00013F4807FD2F8003B14BF43F0805343F0FE
:100BE0000053C2F8003BE0E70000000000000000F6
:100BF0002DE9F041244F0446D7F8906006EB4013EE
:100C0000D3F8085B2807C3F8085B03D5D6F8143877
:100C1000190731D4EA072DD5D6F81438DB0729D5C2
:100C200007EB8403D9685CB98A69488A5568B5FBC3
:100C3000F0F300FB13531BB91068D36898420DD32F
:100C400001227B89CD68A24023EA02037B818DB11A
:100C500021462B460C48BDE8F04118471B1A54604A
:100C60002021136081F3118807482146FFF778FFA0
:100C700084F31188BDE8F08107EB840321463846F0
:100C8000DB685B689847C5E7A80700240000000000
:100C900038B590F870300446152B16D8DFE803F00D
:100CA00016151515151516151516161615151515EF
:100CB000151515150B2DC3689B695B682BB9C36FA0
:100CC00003B19847002384F8703038BDD0F89030D5
:100CD0004168D3F800290D6842F40012C3F80029D6
:100CE000D3F8002B42F40012C3F8002B0DB10621FB
:100CF000A847062384F8703038BD0B22202380F8E3
:100D0000702083F3118802890025C36842F0010234
:100D100029465B6902819D60C3E90055FFF780FEAB
:100D200085F3118838BD00BF0000000000000000FE
:100D300038B590F870300446152B22D8DFE803F060
:100D40000B21212121210B21212232492121212185
:100D5000212121210B0BD0F890304168D3F80029D4
:100D60000D6842F40012C3F80029D3F8002B42F4B6
:100D70000012C3F8002B0DB10621A847062384F802
:100D8000703038BD90F8872090F88630816F43EA44
:100D90000223994206D2C3681B8AB1FBF3F503FB19
:100DA0001515EDB11422202384F8702083F31188E7
:100DB00062890025E368204642F0010229469B69CA
:100DC00062819D60C3E90055FFF7CAFE85F3118873
:100DD00038BDC36F03B19847002384F8703038BD25
:100DE000202383F3118802892946C36842F0010257
:100DF0005B6902819D60C3E90055FFF711FE85F331
:100E000011880A2384F8703038BD00BF000000004C
:100E1000F0B500EB810E0125B0F808C00027DEF820
:100E20000C608D40766945EA0C050581B260C6E923
:100E30000037BDE8F040FFF7F3BD00BF0000000041
:100E4000704700BF0000000000000000000000002C
:100E500090F8802002F06002202A01D00020704724
:100E600090F881200346212A0BD81F2AF6D90721A2
:100E70000022012010B4074CDA67C3E91D4110BC01
:100E80007047222AEAD100220120C3E91D22DA6735
:100E9000704700BF000000240000000000000000B8
:100EA000002070470000000000000000000000006B
:100EB000002070470000000000000000000000005B
:100EC000D0F88C140A68F8B51378042B02D1037A91
:100ED000022B01D00120F8BD0C790123558903FABA
:100EE00004F42542F6D1D0E90746B44214D049793A
:100EF000231D01204FF4807702EB81048840E668CF
:100F0000002405431046B6695581B360C6E90074F4
:100F1000FFF726FE2046F8BD80690028E7D0D9E714
:100F2000406BFFF7CDBF00BF0000000000000000D5
:100F3000133138B550F8214094B1202383F3118840
:100F4000D4F88C241368527903EB8203DB689B6925
:100F50005D6835B92046FFF7B3FF002383F311889E
:100F600038BD04216018FFF733FCE369616A04F1BE
:100F70000C001D60A56AA2692B4401328B42E3611B
:100F8000A26101D3236BE361FFF712FCE2E700BF2C
:100F90000379052B06D1826A4FF400730020C1E962
:100FA0000032704701207047000000000000000080
:100FB0000079053818BF0120704700BF000000000D
:100FC000C3689B0F0CD0012B08D18368C28818041A
:100FD00000F47C10104301308002704700207047FD
:100FE000826840F6FC73416803EA8200C2F3034260
:100FF000C1F3C23340EA9170093A0233013098409C
:101000009040704700000000000000000000000059
:101010000346D0E90420824203D050F8043B0B6021
:101020007047DB68002BF8D00020704700000000FC
:1010300010B5446B82B0D4F88C2413681978042955
:1010400002D1217A022901D002B010BD107901220B
:10105000198902FA00F30B42F6D101A904F1440008
:10106000FFF7D6FFD4F88C440246019B2179206813
:10107000FFF7CEFEE8E700BF000000000000000020
:1010800010B5202382B083F311881F4CD4F88C2430
:1010900013681978042902D1217A022904D0002387
:1010A00083F3118802B010BD10790122198902FA68
:1010B00000F30B42F3D1D4E915329342EFD1226D04
:1010C000002AECD0E26E002AE9D0043AD21AE6D027
:1010D0001A60206E226D0344E16D013A8B42636514
:1010E000226501D3A36E6365002301A90748E36667
:1010F000FFF78EFFD4F88C440246019B21792068CB
:10110000FFF786FECBE700BFB0020024F402002404
:1011100001F10B032DE9F04150F8235082B0F5B1F5
:101120000E460446202383F3118800EB8107281D17
:101130000821FFF74DFBFB685B691B6893B905F15C
:10114000440801A94046FFF763FF024610B3314649
:101150002046019BFFF75CFE002383F3118802B059
:10116000BDE8F081AB6D05F14408296E2A6D0B4492
:10117000E96D01328B42AB652A6501D3AB6EAB657D
:101180004046FFF715FB404601A9FFF741FF024625
:101190000028DCD1FB685A691268002ADCD01B8A5F
:1011A000013B1340D8D1314604F180022046FFF7BD
:1011B0002FFED1E70000000000000000000000004A
:1011C000F8B5194B0021846805469F69BE684162E5
:1011D000B4420BD880F820101B689A689442FBD95F
:1011E0005A68C5E9003215605D60F8BD1A4687F897
:1011F000201012689468A642FBD351680120C7E909
:1012000000210F60576085F820001A8E9D61D3077A
:1012100005D539462846BDE8F840FFF7B1B838464D
:10122000FFF726FBF5E700BF880800240000000058
:1012300038B50F4C01212368A56985F820001A688C
:10124000546083F82010218E2260CA07A36105D55F
:1012500029461846BDE83840FFF792B82846FFF700
:1012600007FBA36929461846BDE83840FFF788B850
:1012700088080024000000000000000000000000BA
:101280004B1CF0B587B048D03F4C02293F4B054678
:101290002646A26904934FF0804056F81C3F38BFA1
:1012A00002210592B342426A5AD0A76AD21B89181A
:1012B0009A682DD31B68891A9A68914204D91B68D1
:1012C000891A9A688A42FAD35A6801AF01934FF09B
:1012D000FF30029217605F6003919A68511A99601B
:1012E00060622846FFF7A4FF049B6BB1E369BB4231
:1012F0001AD0DDE901321360019BB3425A6003D07A
:101300009A6803990A449A60A369586A07B0F0BDC5
:101310009142D2D20F444763CFE71B4CFFF788FFBF
:10132000A369586A07B0F0BD019B0022B342E36194
:101330005E60049224D09A684FF08040039DA16AB9
:101340002A449A60436A581A8242DDD9CB1A134460
:10135000012B4FF0804398BF821C0A445A63D3E7A5
:10136000A26201EB020C01AF002202230391CDE93E
:101370000166C4E90777C0F834C00261C360B0E712
:101380004FF08043DA60BFE788080024E1060008D8
:1013900061B10346074A0420926910B45C68C2E94F
:1013A0000034226010BC5A60FFF76ABF4FF0FF3074
:1013B000704700BF88080024000000000000000003
:1013C000F8B5202304460F46164683F3118803E040
:1013D000FFF7DEFF002819DBA56831462046002D07
:1013E000F6D06269A368511C013B6161A36017706C
:1013F000D4E904329A4201D3E3686361E3690BB133
:1014000020469847002080F31188F8BD85F31188A5
:10141000F8BD00BF00000000000000000000000058
:101420003030FFF7CDBF00BF00000000000000001B
:101430004FF0FF323030FFF7C3BF00BF00000000A5
:1014400070B5202305460E4683F3118803E0FFF7AD
:101450009FFF002819DBAC6831462846002CF6D0E7
:10146000A969AB684A1C2869013B8242AA61AB604A
:101470000C7801D3EB68AB61EB690BB12846984758
:10148000002383F31188204670BD84F3118870BD5A
:101490000C30FFF7D5BF00BF0000000000000000C7
:1014A0004FF0FF310C30FFF7CBBF00BF0000000052
:1014B00038B504460D4605E0237A83B9FFF768FF87
:1014C00000280BDBE36829462046002BF4D0236973
:1014D0000020E1691A1D0B44C4E90A2338BD6FF0EE
:1014E000010038BD00000000000000000000000006
:1014F00070B520230D46044683F31188866AFEB139
:101500003570D4E90A3201339342A36214D3E269FD
:101510002369043AA1691A60E069E2680344013A68
:101520008B422361E26001D3636A23610022236B53
:10153000A2620BB120469847002080F3118870BD4D
:101540001146FFF7B5FF08B9A66AD9E786F31188F7
:1015500070BD00BF0000000000000000000000009F
:101560004430FFF7C5BF00BF0000000000000000CE
:101570004FF0FF324430FFF7BBBF00BF0000000058
:1015800038B504460D4605E0237A83B9FFF700FF1E
:1015900000280BDBE36829462046002BF4D0636962
:1015A00000201A1D1B681344C4E90A2338BD6FF0DC
:1015B000010038BD00000000000000000000000035
:1015C00070B52023044683F31188856AE5B115F8C8
:1015D000016BE26AA562954211D36369E069E26832
:1015E0000344A169013A8B426361E26001D3636AFB
:1015F00063610022236BA2620BB12046984700234F
:1016000083F31188304670BDFFF7BAFF064608B96C
:10161000A56ADCE785F31188F4E700BF000000004D
:101620000C30FFF7CDBF00BF00000000000000003D
:101630004FF0FF310C30FFF7C3BF00BF00000000C8
:1016400008B50146202383F311880820FFF718FE10
:10165000002383F3118808BD000000000000000093
:10166000164B174A9B69174CDFF85C8080B59A616E
:10167000012702264FF480454FF4FA702783FFF7C5
:10168000DFFF4FF4FA70A8F81860FFF7D9FF4FF4A6
:10169000FA602583FFF7D4FF4FF4FA706783FFF7F2
:1016A000CFFF4FF4FA70A8F81A60FFF7C9FF4FF4A4
:1016B000FA606583FFF7C4FFDAE700BF88080024FB
:1016C0004C4B0008000402580010025800000000B3
:1016D00030B5104D83B0044603E0022A16D8FFF758
:1016E000AFFF01ABA26B0D212046FFF769F903465E
:1016F0000A2043B9019AC2F343212A42A1F105020B
:1017000004D10429E9D1184603B030BD012318469D
:1017100003B030BD08E0FFFD000000000000000045
:1017200038B5202383F311880379022B12D00423C8
:1017300004460025037185F31188FFF7C9FF236C68
:10174000022218B958601860227138BD5D601D60B2
:10175000227138BD002080F3118838BD00000000E0
:101760000EB42DE9F04F86B0C04A0026482110ABD8
:1017700002F1FF3BBE4F14469A4602930BE03B68D2
:101780000136BB48A346DB6898475C4614F8011B4A
:10179000002900F0BA802529F1D19BF801302D2BCA
:1017A00000F0498123784FF0000E2B2B00F04C8184
:1017B0000025302B00F03B81202200922A2B40F0A4
:1017C000218104F1020B63785AF8041B2E2B00F0E0
:1017D0003F81002403F0DF004C2840F09F801BF87D
:1017E000013B002B00F09180A3F14400342800F26B
:1017F000A381DFE810F06F01A101A101A101A10106
:101800006F01A101A101A101A101A101A501900008
:10181000A101A101A101A1013500A101A101900037
:10182000A101A101A101A101A101A101A101A101A8
:10183000A101A1015C016F01A101A101A101A1010F
:101840006F01A101A101A101A101A101A5019000C8
:10185000A101A1013F01A1013500A101A101900059
:101860004FF00A0C5AF8045B0DF1170300E0234611
:101870002A465C1EB5FBFCF50CFB152808F1300070
:101880003928C8BF08F137006245C0B203F8010C1F
:10189000EDD20DF1170203AD141B9046AC4601E0EA
:1018A00013F8010B43450CF8010BF9D1091B013C5E
:1018B00021EAE178BEF1000F04D10029C8F1000847
:1018C00000F35381002C0CDB04F10109A9443B68AF
:1018D000384615F8011BDB6898474D45F7D10136AE
:1018E0002644B8F1000F3FF450AF4446009D3B68DA
:1018F00029463846DB689847013CF8D15C464644A7
:1019000014F8011B00297FF446AF304606B0BDE84D
:10191000F04F03B070474FF0100CA3E7A3F1440C55
:10192000BCF1340F00F2088101A252F82CF000BF84
:10193000D51A0008391B0008391B0008391B00089C
:10194000391B0008D51A0008391B0008391B00088C
:10195000391B0008391B0008391B0008411B00080F
:1019600017190008391B0008391B0008391B00082B
:10197000391B000861180008391B0008391B0008D2
:1019800017190008391B0008391B0008391B00080B
:10199000391B0008391B0008391B0008391B0008D7
:1019A000391B0008391B0008391B0008AF1A000852
:1019B000D51A0008391B0008391B0008391B00081C
:1019C000391B0008D51A0008391B0008391B00080C
:1019D000391B0008391B0008391B0008411B00088F
:1019E00017190008391B0008391B0008751A000870
:1019F000391B000861180008391B0008391B000852
:101A00001719000804F1010B002B3FF47EAF0021F1
:101A1000A3F1300201EB8100D2B2092A3FF6D6AE23
:101A20001BF8013B02EB4001002BF1D16DE7009365
:101A300001342378C2E69BF802300BF102044FF028
:101A4000010E2B2B7FF4B4AE012563782C44B0E655
:101A50009BF80030002B3FF458AF2A2B73D19BF832
:101A600001300BF1020B5AF8044BB3E6554B00085A
:101A7000B00200245AF8045B002D00F0BA802B78E5
:101A8000002C40F09980002B00F09A8047F6FE74FD
:101A90002B4601E0E24204D413F8010FEA1A0028B1
:101AA000F8D15C1B2023091B0093013C00E7202395
:101AB000013900935AF8043B8DF80C3021EAE178A3
:101AC000BEF1000F03D10029C8F1000870DC00242A
:101AD00003ADF9E65AF8040B002861DB002D00F095
:101AE0008D802B230DF10D0403AD8DF80C3004F126
:101AF0000B03494A9C460193A2FB00838046DB0806
:101B0000B8F1090F03EB83091846A8EB490303F169
:101B10003003DBB20CF8013DEEDC019AA2EB0C00C5
:101B2000204401E01CF8013F04F8013B8442F9D154
:101B3000641B091B013CBBE601398DF80C30BDE785
:101B40004FF0080C8EE60BF1010B0024A3F13002DC
:101B500004EB8400D2B2092A3FF63CAE1BF8013BED
:101B600002EB4004002BF1D1CFE6C1462B782D2BA0
:101B700002D1009B302B2FD0334626464446984650
:101B80003A6838460099D26890470134F8D1434604
:101B9000A0463446A3EB0906002CBFF695AEF4E54B
:101BA0002D2340420DF10D0403AD8DF80C309EE75E
:101BB0007446C14603ADD9E713B1013C7FF568AF68
:101BC00021EAE178BEF1000F03D10029C8F1000835
:101BD00017DC2023009384E63B6801362D210F4853
:101BE000DB68013C98473346013526464446984613
:101BF000C6E70B4D002C3FF449AFDEE703AD2C46A2
:101C000075E720234FF0FF34C14600933346264644
:101C100044469846B4E700BFCDCCCCCCB0020024FB
:101C20006C4B0008000000000000000000000000F5
:101C30002DE9F041202405460F46164684F311880D
:101C4000046CE06BB0B900222265E263E262606B73
:101C500010F4807009D04FF0FF33A36382F3118832
:101C6000012F12D81046BDE8F08180F311880120C1
:101C7000BDE8F081084A2B460320926943F83C2FC7
:101C80005362FFF7D5FA2C6CDDE7334628460C216A
:101C9000BDE8F041FEF794BE880800240000000073
:101CA000F0B51D4604461346006C4FF48D760A4687
:101CB0004FF0FF3C90216F0283B0C0F838C0C6637C
:101CC00001268762C162216B8365CB06066501AE82
:101CD00058BF5202012D17D9592120463346FEF72D
:101CE0006FFE48B9019A0F4B13402BB93246294673
:101CF0002046FFF79DFF28B1204632462946FEF7D1
:101D000077FE012003B0F0BD582120463346FEF790
:101D100057FE0028F0D1019A024B1340002BE5D06A
:101D2000EAE700BF08E0FFFD00000000000000003F
:101D3000F0B51D4604461346006C4FF495760A46EE
:101D40004FF0FF3C92216F0283B0C0F838C0C663E9
:101D500001268762C162216B8365CB06066501AEF1
:101D600058BF5202012D17D9522120463346FEF7A3
:101D700027FE48B9019A0F4B13402BB9324629462A
:101D80002046FFF755FF28B1204632462946FEF788
:101D90002FFE012003B0F0BD512120463346FEF74F
:101DA0000FFE0028F0D1019A024B1340002BE5D022
:101DB000EAE700BF08E0FFFD0000000000000000AF
:101DC0002DE9F0411C4F1646026C82B004460D46C8
:101DD00057629846FFF77CFCC0B9206C4FF0FF3784
:101DE0004FF49572062387630127C26348F04001D0
:101DF0008662089AC36201AB856507652046FEF7D7
:101E0000DFFD18B9019A0D4B13405BB1236C04F14F
:101E100034005A6B596B9963FEF792FD012002B0B2
:101E2000BDE8F08101AA39462046FFF701FF0028EE
:101E3000ECD102B0BDE8F08140420F0008E0FFFDA8
:101E4000F8B590F87030044613B1002380F8703074
:101E500004EB81016268CB681B6A19685B68C4F88F
:101E60008010C4F8843093686BB32046984750B311
:101E7000A36F94F8800094F8871094F8862042EAC3
:101E800001229A4201D21346A267020600F1E580C0
:101E9000002B00F093801522202384F8702083F318
:101EA000118862890025E368204642F00102666FCE
:101EB0009B6929466281A26F83E86400FEF750FEA9
:101EC00085F31188F8BD94F8800010F060061CD1ED
:101ED00094F8811000F07F0340F2023243EA0123BC
:101EE000934200F0998148D8B3F5807F00F0438198
:101EF00023D9B3F5817F00F04D81B3F5407F04D144
:101F000094F88230012B00F0DF80D4F89020D2F8D2
:101F10000039616843F400130D68C2F80039D2F843
:101F2000003B43F40013C2F8003B15B106212046E4
:101F3000A847062384F87030F8BD012B63D0022B2C
:101F400053D194F9841094F88420002902F00F01F1
:101F5000D4F89020C0F2B1805831490151580D0495
:101F6000D5D589024FF000024FF002014CBFBD4DA4
:101F7000BD4DE267C4E91D517DE7B3F5006F00F088
:101F8000438148D9B3F5106F39D12378042B00F081
:101F9000A58094F882304BB10421626884F88B30BC
:101FA0002170136813B1022120469847002394F84A
:101FB0008000C4E91D33E367030667D40B222023A6
:101FC00084F8702083F3118822890025E368204675
:101FD00042F0010229465B6922819D60C3E90055F8
:101FE000FEF71EFD85F31188F8BD002B8DD102226E
:101FF00004F18801E36761671346A2673BE740F697
:102000000242934281D1994B022200216367134619
:10201000C4E91E212FE7B3F5A06F00F0D780A3F528
:10202000C063012B3FF671AF94F8852020466168AC
:1020300094F884304D6843EA022394F8831094F8AE
:102040008220A84700283FF460AFD0E9003294F81E
:102050008000E667C4E91D230DE7BBB109222023F8
:1020600084F8702083F3118822890025E3682046D4
:1020700042F00102666F5B6929462281A26F83E804
:102080006400FEF7CDFC85F31188F8BD14222023EF
:1020900084F8702083F3118862890025E368204664
:1020A00042F0010229469B6962819D60C3E90055A7
:1020B000FEF756FD85F31188F8BD483149015158A6
:1020C0000E047FF524AF4CE7B4F88830666743F020
:1020D0000203C4E91E66A4F888306DE7202383F369
:1020E0001188D4F894103246A3684FF0FF35086881
:1020F00003F001132661C4F89800D4F89000D1F8D9
:1021000008C0E662A360C4E90566C4E90766C4E9DD
:10211000096600EB4211561CD1F800790B46002FDE
:1021200005DAD1F8007947F08047C1F80079D1F895
:10213000007B002F05DAD1F8007B47F08047C1F81B
:10214000007B9445C3F808593246C3F8085BE0D1D8
:102150004FF001120023C0F81C2883F311880321DB
:10216000626884F88B3021701368002B3FF411AF44
:10217000204698470DE794F88230012B7FF4C5AED6
:10218000B4F88830666723F00203C4E91E66A4F839
:10219000883011E794F88230002B7FF4B6AE94F8C3
:1021A000843013F00F020CD013F0800FD4F890306D
:1021B00003EB421348D1D3F8002B22F40012C3F8EA
:1021C000002B0023C4E91D33E367F5E6B4F8803043
:1021D000B3F5A06FF5D194F88210D4F8902084F86C
:1021E0008A10D2F80038656823F4FE632D6843EA4C
:1021F0000113C2F8003825B120460121A84794F800
:10220000800003232370DCE704F18B030122E667DF
:1022100063671346A2672EE694F88230002B7FF4A2
:1022200074AE94F8843013F00F02CAD013F0800F0C
:10223000D4F8903003EB42130DD1D3F8002B42F4C5
:102240000012C3F8002BBCE7D3F8002922F40012D7
:10225000C3F80029B5E7D3F8002942F40012C3F807
:102260000029AEE7204F00088C4E000824510008DA
:102270002DE9F8431F46013B1646826A0B4404468B
:10228000934206D9436B012043F080036363BDE8AA
:10229000F88307230D460371B30728D02FB30F44EB
:1022A00000F14808DFF8649004E0FFF7F9FCB8B9E2
:1022B000BD421AD04FF40072314640461644FEF734
:1022C00075F8236C2046C3F82490FFF701FA844682
:1022D00029460123013542462046BCF1000FE4D0D7
:1022E000012005232371BDE8F8830020F9E7036C82
:1022F000064A5A62FFF7ECF90028F1D13B46324614
:1023000029462046FFF7CCFCEBE700BF40420F0018
:102310002DE9F8431F46013B1646826A0B440446EA
:10232000934206D9436B012043F080036363BDE809
:10233000F88306230D460371B30729D037B30F4442
:1023400000F14808DFF864900CE0FFF7F1FC4FF46F
:102350000072034641463046164493B9FEF726F80C
:10236000BD4213D0236C2046C3F82490FFF7B0F988
:10237000844629460123013542462046BCF1000F20
:10238000E3D0012005232371BDE8F8830020F9E79D
:10239000036C064A5A62FFF79BF90028F1D13B46CD
:1023A000324629462046FFF7C3FCEBE740420F00C8
:1023B0002DE9F04F85B0C7694FF02009CDE9023211
:1023C00089F311889AB304460E46DDF80CB04FF03D
:1023D000000AA268934531D9A568D4E90420A2EB8C
:1023E0000008A84531D838D2A5EB0803424631464B
:1023F0000193FDF7DBFF06EB0801DDF80480E068E0
:102400004246FDF7D3FFA268E1684346521BCB1852
:10241000A26063610FB12046B8478AF31188ABEB25
:10242000050B2E4489F31188BBF1000FD1D103981D
:10243000002383F3118805B0BDE8F08FD4E90420B0
:102440005D46A2EB0008A845CDD92A463146FDF7E6
:10245000ADFF62692A44626105E02A463146FDF714
:10246000A5FFE2686261A268521BA260002DD1D173
:1024700002992046FEF78CFF0028AAD0039BA3EB0D
:102480000B00002383F3118805B0BDE8F08F00BF77
:102490003030FFF78DBF00BF0000000000000000DB
:1024A0004FF0FF333030FFF783BF00BF0000000064
:1024B0002DE9F04F85B0C7694FF02009CDE9023210
:1024C00089F311889AB304460E46DDF80CB04FF03C
:1024D000000AA268934531D9A1692269A568A2EBD7
:1024E0000108A84531D838D2A5EB0803424630464A
:1024F0000193FDF75BFF06EB0800DDF80480E1685F
:102500004246FDF753FFA268E1684346521BCB18D1
:10251000A260A3610FB12046B8478AF31188ABEBE4
:10252000050B2E4489F31188BBF1000FD1D103981C
:10253000002383F3118805B0BDE8F08FA1695D46E3
:102540002269A2EB0108A845CDD92A463046FDF7FD
:102550002DFFA2692A44A26105E02A463046FDF714
:1025600025FFE268A261A268521BA260002DD1D1B2
:1025700002992046FEF70CFF0028AAD0039BA3EB8C
:102580000B00002383F3118805B0BDE8F08F00BF76
:102590000C30FFF78DBF00BF0000000000000000FE
:1025A0004FF0FF330C30FFF783BF00BF0000000087
:1025B0002DE9F04F83B006460D4693464FF02009B3
:1025C000019389F311880027B46AB846002C45D0DE
:1025D000F36AABEB07021B1B9A4228BF1A46402A3C
:1025E000924642D9294605F1400C0D68103151F848
:1025F0000C0C103451F8082C51F8043C614544F897
:10260000105C44F80C0C44F8082C44F8043CECD161
:10261000B26A0D4640374032B262F36A934214D830
:10262000F2693369043AB0691A60F169F2680B44DF
:10263000013A83423361F26001D3736A3361336BD1
:10264000C6F828800BB13046984788F311885F455B
:1026500018D289F31188B46A002CB9D10199304697
:10266000FEF726FF60B9B46AB2E729462046174450
:10267000FDF79CFEB36A554403EB0A02B262CCE755
:1026800084F31188384603B0BDE8F08F00000000E5
:102690004430FFF78DBF00BF0000000000000000C5
:1026A0004FF0FF334430FFF783BF00BF000000004E
:1026B0002DE9F04F83B005460F4693464FF02009B1
:1026C000019389F311880026AC6AB046002C44D0EF
:1026D000EB6AABEB060221461B1B9A4228BF1A4647
:1026E000402A924640D93B4604F1400ED1F800C042
:1026F000103151F80C4C103351F8080C51F8042CDF
:10270000714543F810CC43F80C4C43F8080C43F8DF
:10271000042CEBD1AA6A403740364032AA62EB6AF9
:10272000934211D86B69E969E8680B44AA690138DA
:1027300093426B61E86001D36B6A6B612B6BC5F8E8
:1027400028800BB12846984788F311885E4517D238
:1027500089F31188AC6A002CBAD101992846FEF79A
:102760000FFF58B9AC6AB3E738461644FDF71EFEB2
:10277000AB6A574403EB0A02AA62D0E784F31188DC
:10278000304603B0BDE8F08F0000000000000000FC
:102790000C30FFF78DBF00BF0000000000000000FC
:1027A0004FF0FF330C30FFF783BF00BF0000000085
:1027B0002DE9F84300EB810753690C460FFA81F8C5
:1027C000FA6023B10021196059609960D96093695A
:1027D00023B100221A605A609A60DA60FB684FF0F9
:1027E000000CD0F890501A68494E02F00302511EB6
:1027F0000229996998BF06EB824605EB4412C2F89C
:1028000010CB4FEA441C00294BD0B3F812E004F17E
:10281000580104F11009012249014EEA060E02FA9C
:1028200009F245F801E0D5F81C180A43C5F81C2840
:1028300005EB0C0259694FF0000CC2F810C90029D1
:1028400043D09A8B198A012AD0F898C04FEA910395
:1028500004F13F0188BF5343A20105EB810103EB63
:102860000C0E42F020024CEA0343C0F898E04B60A3
:102870002A612B699A06FCD41220FEF739F8FA680F
:10288000012304F14801128AA340490142EA845419
:1028900034436C50D5F81C281343C5F81C38BDE8E8
:1028A000F88305EB481204F110090121D2F800EB7E
:1028B00001FA09F12EF4004EC2F800EBD5F81C28FD
:1028C00022EA0102C5F81C28B2E704F13F02A30185
:1028D000104905EB820243F0200351602B612B6904
:1028E0009B06FCD405EB48181220FEF701F80121E5
:1028F000D8F80039A14023F40043C8F80039D5F8CE
:102900001C4824EA0104C5F81C48BDE8F88300BF50
:102910000080001000040002000000000000000021
:1029200038B505291ED8DFE801F0031D2D03031E6D
:10293000202383F311882C4C237D13B194F84C3061
:102940006BB9022129480125FDF742FF284825756A
:10295000FDF716FF274884F84C50FDF711FF0023C0
:1029600083F3118838BD202383F311881E4C012185
:10297000201DFDF72DFF0023237584F84C3083F3D1
:10298000118838BD0546202383F31188164C012198
:10299000194AFFF70DFF02212846184AFFF708FFE2
:1029A0000025236B04F10C00A561C4E90733C4E9D9
:1029B0000D55FDF7E5FE626EA36E04F1440022653D
:1029C0002575C4E91533C4E91B55FDF7D9FE201D53
:1029D000012184F84C50FDF7FBFE2046FEF770FA0B
:1029E00085F3118838BD00BFB0020024B402002472
:1029F000BC020024F4020024CC4E0008F04E000873
:102A00002DE9F04184B0B14B03220446416C0271C0
:102A100002AF9942026C73D903F57413AC4803F604
:102A2000FF030B44A0FB03135B0D5360642013688A
:102A300043F003031360FEF703FE236C00214FF401
:102A400080529960DA605A6B1006FCD580204FF4F2
:102A5000D572082198633B1D2046FDF7B1FF002881
:102A600050D17B680122C3F30323226393420BD02E
:102A7000236C0022022101255A601A602171284628
:102A80000837BD46BDE8F08102463B1D3721204690
:102A9000FDF796FF0028EBD17A688E4B1340002B90
:102AA000E6D1266B06F00F03022B34D08A4E8B4AF8
:102AB000012B18BF16466425DFF818823B1D002243
:102AC00037212046FDF77CFF0028D1D17B6813EA2F
:102AD000080FCDD1236C41F229129E60DA60596B48
:102AE00011F04502FBD048079A632DD45A69002A99
:102AF0007A6041DB013DBCD06420FEF7A1FDDDE73B
:102B0000002392E73B1D002237212046FDF758FFA6
:102B100000B3022323636425DFF8D08141F201165C
:102B2000236CC3F80880DE60596B11F04502FBD0BE
:102B30009A634A0708D45A69002A1DDB013D98D0E0
:102B40006420FEF77DFDEBE704F13400FDF7F8FEAD
:102B5000236C8EE77A685F4B1340002BD9D1226C2F
:102B60004FF4805123639360D160536B1906FCD5F9
:102B700080235A4E93639EE7520003D5236B43F0A4
:102B80001003236304F10803002202212046FDF70D
:102B9000F7FE00287FF46CAF024604F138030321EE
:102BA0002046FDF70DFF00287FF462AF04F1180501
:102BB000A26B092120462B46FDF7E2FE00287FF498
:102BC00057AFA26B072120463B46FDF7F9FE0028D0
:102BD0007FF44EAF236B03F00F03022B00F0AC80A9
:102BE000636A6E4690B09B0F0DF108080DD00090FF
:102BF0000623402241462046FFF7E2F8002840F035
:102C0000E88098F80D309B0772D4B546344AD4E971
:102C100010104B68904223F0FF0306D9314A324E20
:102C20000244A6FB020243EA126343F480534B6062
:102C3000236B03F00F03022B00F0AA802846FEF757
:102C4000BFF9A0623B464FF4007210212046FDF709
:102C5000B7FE054600287FF40BAF3B681D4E33429C
:102C60007FF406AF236B13F00E0F03F00F0273D146
:102C7000E36A1B7833B3012B7FF4FAAED4F840E05B
:102C80003B1DA26B3721DEF804C020462CF4404CDB
:102C90004CF4804CCEF804C0FDF792FE00287FF47F
:102CA000E7AE7B6833427FF4E3AE3B1D0222062190
:102CB0002046FDF785FE00287FF4DAAE7B683342BC
:102CC0007FF4D6AE05232371D9E600BF00093D008D
:102CD00083DE1B4308E0FFFD0080FF5000001080F2
:102CE00040787D017FF0FA02893BE6550080FFC005
:102CF000434806234022414600902046FFF760F8F3
:102D0000002866D198F8103003F00F030F2B63D022
:102D1000B5463C49D4E910205368884223F0FF03AC
:102D200006D93949394E0144A6FB010143EA5163F2
:102D300043F4805353607BE73B1D354A0621204610
:102D4000FDF73EFE00287FF461AF7A68314B1340F7
:102D5000002B7FF45BAFDCE7022A7FF489AEE36AE5
:102D60001B78012B43D0022B38D0002BAAD0236C28
:102D7000294A5B683B1D06212046FDF721FE0028FD
:102D80007FF476AE7A68234B1340002B9AD06FE61F
:102D9000636A002BBFF652AF002008234FF4007285
:102DA00004F1480100902046FFF70AF800287FF45C
:102DB0005FAE94F81E3194F81F011B0494F81C11A7
:102DC00094F81D2103EB00630B4403EB0223A36281
:102DD00038E7B546236C4CE6B54617E7216C0F4A39
:102DE0004B6823F4404343F400434B60C2E7216C3B
:102DF0000B4A4B6823F4404343F480434B60B9E7EC
:102E0000F1FFFF8080F0FA02FFE0F505893BE6550F
:102E10000001B90308E0FFFD0000B7030002B7039B
:102E20000001B703000000000000000000000000E7
:102E3000414B00224FF0FF31404DD3F88000144643
:102E40003F4EDFF81CC180B5C3F8801086B0D3F8C0
:102E50008000C3F88020D3F88000D3F88400C3F842
:102E60008410D3F88400C3F88420D3F88400D86F8A
:102E7000344F2843D867DD6F334835403E46DD6721
:102E8000DD6FD3F888502843C3F88800D3F8885002
:102E90002E48C5F30A05C3F88850D3F88850D3F8F4
:102EA0009050C3F89010D3F89050C3F89020D3F806
:102EB0009050D3F89450C3F89410D3F89450C3F8BA
:102EC0009420D3F89450D3F89850C3F89810D3F8BE
:102ED0009850C3F89820D3F89850D3F88C50C3F882
:102EE0008C10D3F88C50C3F88C20D3F88C50D3F8C6
:102EF0009C50C3F89C1000F1A001D3F89C50C3F87B
:102F00009C20D3F89C303A6001E050F814CC143087
:102F1000CCF800407460814246F8084FF5D10C4966
:102F20004FF0FF360B4D00200B460B4A6E6001F14F
:102F300080050C60094917E000440258FFEFFF7F4D
:102F4000001000804408002400F8FFFF044D000832
:102F50004C120024005402589C4D000810000240FE
:102F60000854025852F8101C0833086043F8040C47
:102F700010329D42F6D1C14B4FF0FF32C04F902529
:102F8000C04E4FF08061BA604FF40034FA604FF0E9
:102F9000700CB260C027F2604FF0805283F87A5311
:102FA0000626C3F88C11D960802183F83153C3F809
:102FB0008441B54D5C60052483F81CC3C3F88021AF
:102FC0001A6083F82773B14AC3F884115960B04975
:102FD000B04B9660D560136154604B6A43F4803304
:102FE0004B62C1F88400BFF34F8FD1F8805043F695
:102FF000E076C5F34E34C5F3C905640104EA060062
:103000002B4640EA8372013BC1F874225A1CF8D166
:10301000203C14F1200FF1D1BFF34F8FBFF36F8F1E
:103020009D4D4FF0100C9D4800232F469C4C00EB0B
:103030000C06E86304EB0C08AC619A4905F10C0E30
:10304000C5F81C8005F130086B6141F20A09AB62DA
:10305000C5F838C04FF0A00C2E64C5F80CE0C5F8D8
:1030600010E04FF0080EC5F83080C5F8348041F20A
:103070001808ED622D658C4A8C4EC5E911008C480C
:10308000E8648C4868658C48A8658C4847F8040B50
:103090008B486F608B4F436307608B4FC36307643C
:1030A0008A4FC5E9084401244764744F04712C72A7
:1030B0000C70C0E90A338648C1E90133C86185480C
:1030C0004B61C862303081F82030536093600863F0
:1030D00053618148C1E9093387F823C382F820404E
:1030E000C7F884E15362C7F804E04FF4800E14700F
:1030F000936287F856C301F10C0CD0611846C2F8F0
:103100002C90C2F83080C7F888E1736006F1300374
:10311000C7F808E002F10C07347006F15004C1E969
:1031200003CCC2E9037743F8040B9C42D861FAD17F
:103130006A4A4FF0010EB0604FF08043D2F8E810B9
:103140004FF0FF37DFF8C48142F6DF6C41F0010138
:10315000634CC2F8E810D2F8101141F00101C2F836
:10316000101104F11C01D2F81021D8F83C2067623C
:1031700042EA0E02C8F83C2004F13808C3F828C01F
:103180000022DF62986164605863A060D8602461A7
:103190005860A06253486461C4E90C08C3F814E0A5
:1031A0005148E161C3F800E0504B24602162C6E958
:1031B0002403D31C013204EB0313802A197A6FF322
:1031C00002011972F5D14A4914274A4B042001F132
:1031D0000C02DFF83CC19F611C27C1F800C003F15D
:1031E000100C1F6303F14407C3F810C003F1280C4F
:1031F0001B608046C3F828C003F1400C5B605F642D
:103200004FF0FF37D86158630020C3F840C00097E3
:10321000C1E9032203F124025A6203F13C02DA639A
:103220000022C1E901224A6100219A605A61DA62F2
:10323000C4F87C280392CDE901222F4A1A629A63CE
:103240002E4B2F4A1A602F4ACDE904015A60684676
:10325000FDF73EFA6846FDF713FAB8F10108F6D11A
:10326000294B80270098012203F12C01DFF8A4E00C
:10327000C4F87C0803F1280C4EE000BF00E100E038
:1032800000000240000402400000043090ED00E025
:1032900000ED00E01B0008030800002428130024B0
:1032A000181300244007002474070024A8070024F2
:1032B000B105000800480040000E2707D450000860
:1032C00068000024A44F000800700052006CDC026B
:1032D000003001401600010000140058004402585C
:1032E00088080024FFFF800000000840144F0008F9
:1032F000301200240811002451060008281200246E
:103300008014002400000824C01000240010005C79
:1033100071050008904E000860694FF0200984F89C
:103320005988C4F87088C4F86C88C4F84848C4F850
:103330004078C4F8747884F85A28C4F850E8C4F87F
:103340004C08036184F85828C4F85488C4F860C84D
:10335000C4F86418C4F86818C4E9053389F31188FF
:1033600062B69D4B4FF6FF0C9C481027D968DFF8DA
:10337000B0E201EA0C010CF1604C0843ACF60F3CE2
:103380009749D860DCF80C0040F08070CCF80C0055
:10339000C1F8B0EF086810430860DF7783F8229027
:1033A00088F3118862B689F311888E4B4FF0020EB4
:1033B000616903F16C0703F19000C3F8982003F1F1
:1033C000B80CC3F89C70884F83F8B220DF66874F33
:1033D000C3F87080C3F8A870854FC3F8A410C3F871
:1033E000C480C3F8A040C3F8AC30A3F8B0E0C3F881
:1033F0008C70C3E9328203F1BC0208616061C3F8DA
:10340000C020C3E92EC2FDF7DBFE88F3118889F3E3
:1034100011882B7A012B0ED1764BD3F8E82042F499
:103420008022C3F8E820D3F8102142F48022C3F8A8
:103430001021D3F81031AA6D4FF0FF3C6E494FF0C8
:1034400040086B6D0120A1FB021240F22D1E110BF2
:103450000222D960C3F804804FF000089860C3F8D6
:1034600000E0C3F820C02A7285F85CC088F3118898
:10347000624B4FF4827E6249202503F28C499C46C0
:10348000D96303F10C01C3F85C90DFF898911872CE
:10349000C3F87490DFF8909118754CF8049B83F88A
:1034A0004C0003F17C00D960196103F52171C3F868
:1034B00004C003F1440CC3F81880DA621A655A6636
:1034C0001B649B67186359629966C3F828E0C3F8C8
:1034D00060E0C3E90D88C3E91B88C3E90700C3E9BD
:1034E0001511C3E911CC85F311884649336333655F
:1034F00073631A72C3F88C1488F31188D6F890207D
:1035000043F69820D2F8043843F00203C2F8043896
:10351000FEF796F885F311883B4B42463B4903F191
:103520002400716043F8042F8342FBD13378012BD0
:103530007ED002220025327085F31188D6F89010D3
:103540002020D1F8043823F00203C1F8043880F3B6
:1035500011882F4B0121DFF8D4C08126C3F8FC70FD
:1035600003F1DC0783F8221103F580702949A3F8E1
:10357000202103F59672C3F80C7103F59477C3F814
:1035800018116169C3F8E050C3F81041C3F81C3149
:10359000C3F8DCC0C3F80861C3F83C61C3F8141178
:1035A000C3E94D550861C3F830216061C3E94A722F
:1035B000FDF706FE85F31188174E184D0F4C336941
:1035C000294620469B0401D5FEF7CAF841F288300F
:1035D000FEF736F8F3E700BF00ED00E00003FA0560
:1035E000001000E05011002411090008744B00087D
:1035F0009103000800440258B5814E1BB00200241C
:10360000210F0008C84F0008B0070024D04F000861
:10361000381300247C4B000800080258544B000863
:1036200055CEACC531100008FC50000861160008EA
:10363000454B20254FF0E00C4FF0C00ED3F8D810CA
:1036400041F00061C3F8D810D3F8001141F00061D7
:10365000C3F80011D3F80011D3F8801041F00061D5
:10366000C3F88010D3F88000384920F00060C3F818
:1036700080003748D3F880304FF4041381F865C3D5
:10368000C1F88C51CD60D6F890503249E860C5F849
:103690000018C5F8002EC5F800E0AB632B69002BBD
:1036A000FCDA01230C202B61FDF722F92B6913F0C2
:1036B0000108FBD11220FDF71BF92B69002BFCDA66
:1036C00000224FF0FF3CD6E92413AA60D3F808E0AB
:1036D00001EB481208F10109D2F80009134600284D
:1036E00005DAD2F8000940F08040C2F80009D2F8AB
:1036F000000B002805DAD2F8000B40F08040C2F839
:10370000000BF045C3F808C9C846C3F808CBDFD1A1
:10371000726800234FF00110D268C1F81C08C5F888
:103720001038C5F81438C5F81C384AB10A4BAB61DB
:103730004FF0FF336B61AB6843F00103AB60F8E619
:10374000064BAB61F4E700BF0044025800E100E023
:103750004014004003002002083C30C0003C30C050
:10376000EFF30983203383F30988002383F311885F
:10377000704700BF000000000000000000000000D3
:1037800038B52022034682F311880F4A946904F168
:103790002805A06A6362A84206D00368A362FCF70A
:1037A000D7FFA06AA842F8D194F822303BB994F828
:1037B00021309B0703D1D4E9043213615A610F20F1
:1037C000BDE83840FDF734BD880800240000000043
:1037D00070B5154E012000213268B56913685E602E
:1037E000336082F8200085F82010AC68B26100E0F8
:1037F0001B689A689442FBD35A68318EC5E900323F
:1038000015605D60CB0705D52946B069BDE87040FD
:10381000FCF7B6BD2846FDF72BF82946B069BDE890
:103820007040FCF7ADBD00BF880800240000000018
:10383000B64A0023B6484FF6FF712DE9F043D2F89F
:10384000885040F2FF77B34C4BF6FE763D43DFF8ED
:103850002083DFF820E3C2F88850D2F88850DFF8E0
:1038600018932C404FF43005C2F88840D2F88840B5
:10387000D2F8E0403C43C2F8E040D2F808413C4373
:10388000A54FC2F8084140F60C74D2F808C140F6C2
:10389000082C4360C0F808804FF48068C0F80CE042
:1038A000DFF8D8E2416107624FF47027C0F824E0E6
:1038B000DFF8CCE2C0F800E0DFF8C8E2C0F804347A
:1038C000C0F808E44FF0770EC0F80C9409F13C49B9
:1038D000C0F814644FF4D016C0F82034A9F203598C
:1038E000C0F824548D4DC0F800540C25C0F804389D
:1038F000C0F808484FF6FD74C0F80C98DFF88892BD
:10390000C0F81418C0F82098C0F82438C0F800C8CF
:1039100000F54060C0F804804FF0040CDFF86C82C2
:1039200087604FF05537C0F80C804FF04C6841610C
:103930000362C0F824E0DFF858E206604FF0086642
:10394000C0F80434C0F80854C0F80CE44FF00F0E6F
:10395000C0F81444724CC0F82034724DC0F82434BE
:10396000C0F800C46360A360E760616123626362C2
:1039700023606D4CC0F8043CC0F8088CC0F80C5CA7
:10398000C0F8141CC0F8203CC0F8244CC0F8006CEF
:10399000664E6748674D684C7360C6F808E0F06093
:1039A000664871613362736233606B60AB60EF6075
:1039B00069612B626B622B606360A360E760616189
:1039C00023626362236043608360C7604161036276
:1039D0004362036000F50050D2F8F410034641F052
:1039E0000201C2F8F410D2F81C1141F00201C2F831
:1039F0001C11D2F81C21C0F80CC05A689704FCD5E1
:103A00004F4A01214F4E00251A604FF440444E4862
:103A10004E4A9960DE601D619C61C16293699E049B
:103A2000FCD51368394943F4807313600B6F03F4BA
:103A30004073B3F5807F04D04FF4803200230A67CF
:103A40000B67324A116F134641F0190111671A6F63
:103A50009507FCD51A682D4942F001021A600B68DF
:103A60005C07FCD50022294B0A611A6912F0380262
:103A7000FBD101214FF080454FF0005434481960CC
:103A800034495D60DC605A67D86219611A681F4961
:103A900042F4A0221A600B689803FCD50B681B4AFD
:103AA00043F080030B601368D905FCD5516F174BA9
:103AB00041F0010151675A6F9207FCD52649002257
:103AC000264D9962264C274927485A631D63DA63BD
:103AD0009C635A641864D96219680C4A41F0A85171
:103AE0001960136803F02853B3F1285FF9D11F4917
:103AF000092000234FF0005590614FF480143120CD
:103B00000E46D3611362D564136543E00044025846
:103B10000000025800F8FFFFB00B00B08100001851
:103B2000001402585515155100B0B000001C025881
:103B300050555555002002580024025800280258BC
:103B400000C000F0040000010004005800480258C2
:103B50000000FF010088100842404000DF03130707
:103B60008F4F07075505FF018F0F070700200052F1
:103B70003CC0FFFF51550040545555450AAA0A0064
:103B80002880AEAAC300003CB000BB00555540558C
:103B900051555555546593650860336803F00F031C
:103BA000012BFAD11B4A1169134641F0030111613F
:103BB0001A6902F03802182AFAD1D3F8DC2042F050
:103BC0000052C3F8DC20D3F8042142F00052C3F8BD
:103BD0000421D3F80421D3F8DC2042F08042C3F85A
:103BE000DC20D3F8042142F08042C3F80421D3F84A
:103BF0000421D3F8DC2042F00042C3F8DC20D3F8E3
:103C0000042142F00042C3F80421D3F80431BDE896
:103C1000F08300BF004402580000000000000000D4
:103C200010B5084C2046FCF74BFE074B2046DB69DD
:103C30005A6919690A409A61FCF72AFEBDE81040EA
:103C4000FCF7DEBC2C4C00087407002400000000C8
:103C500010B5084C2046FCF733FE074B2046DB69C5
:103C60005A6919690A409A61FCF712FEBDE81040D2
:103C7000FCF7C6BC084C0008400700240000000008
:103C80002DE9F84FB44CB548FCF71AFED4F8906013
:103C90007569B3691D4015F48058756140F0608105
:103CA000002DC0F2E680290539D5D4F894300021E2
:103CB000D4F890704FF0FF3CD3F8089007EB411216
:103CC00001F1010ED2F800091346002805DAD2F8F6
:103CD000000940F08040C2F80009D2F8000B00282B
:103CE00005DAD2F8000B40F08040C2F8000B89459D
:103CF000C3F808C97146C3F808CBDFD12278052183
:103D0000636884F88C204FF0011221701B68C7F89B
:103D10001C2813B10421904898470023A360AA04EB
:103D20000CD5D6F8083813F0060FF36823F4705357
:103D30000CBF43F4105343F4A053F3602B074AD451
:103D4000EF0250D4A80200F1DA80EB0600F1AB805C
:103D50002B03D6F818481AD5E70300F1C381A60350
:103D600000F1C681600300F1C981210300F1CC811B
:103D7000E20200F1CF81A30200F1D281670200F1DB
:103D8000D581260200F1AA81E00100F16C8169036E
:103D90001AD5E20700F1EA81A30700F1E381670782
:103DA00000F1DC81260700F1D581E50600F1CE8126
:103DB000A00600F1C781610600F1C081220600F172
:103DC000B981E30500F156816448FCF761FDBDE867
:103DD000F84FFCF715BC6368DB68002BB0D05E4879
:103DE0009847EF02AED50021D4F890B04FF001090A
:103DF000DFF864A10F4607E00137D4F89430FFB232
:103E00009B689F4239469DD80BEB4712D2F8003988
:103E100003F44023B3F5802FEED1D2F80039002B04
:103E2000EADAD2F8003943F09043C2F80039D2F808
:103E30000039002BFBDB8901D4F8902041F02001F0
:103E4000116113699906FCD41220FCF751FD2289F7
:103E500004EB870109FA07F3C96822EA03038A68B9
:103E6000238112B13946504690473846FCF738FB5B
:103E7000C2E7D6F8003E980740F0EE80D6F8043846
:103E800094F88C10626823F0010321701268C6F860
:103E90000438002A3FF407AF05212F489047290531
:103EA0007FF53DAF01E7D4F890100B6A03F4F010F2
:103EB000C3F30A1203F00F03B0F5802F00F0E48083
:103EC000B0F5402F7FF444AF04EB8303DB68186A3E
:103ED000002A3FF43DAF01F5805400239F070146BF
:103EE00001D1D4F80080072B03F1010304D801F8B5
:103EF000018B4FEA182808469A42EFD128E7D4F8F8
:103F0000909000274FF0010ADFF84CB007E001372E
:103F1000D4F89430FFB29B689F423FF616AF09EB8E
:103F20004712D2F8003B03F44023B3F5802FEED1C3
:103F3000D2F8003B04EB87010AFA07FC002BE6DA13
:103F4000CA68584663893946D26823EA0C036381FC
:103F5000002ADCD09047DAE7A8070024E04C0008EC
:103F600000202346022504F12C010246C4F88800F3
:103F700043F8080F257043F8042F9942FBD1202302
:103F800084F870203361356915F02005FBD11220CB
:103F9000FCF7AEFCD4F894C04FF001134FF0006072
:103FA0004FF0FF31DCF80870C6F83458C6F81C38FA
:103FB00006EB4513BD4205F10105C3F80009C3F83E
:103FC000000BC3F80819C3F8081BF1D1DCF8001086
:103FD0001022D4F89030C4F89810DCF80010716208
:103FE0001A611D6915F01005FBD11220FCF780FC49
:103FF000D6F800185F4A092021F4FE61D4F8983001
:10400000C6F800184FF0C041B7693A4367683F6887
:10401000B26103F11002C6F8100843F48013C6F829
:104020001408C4F89820C6F8101B534A5349C6F820
:10403000002BE160C6F81059C6F80029B362002FC2
:104040003FF4C2AE29464E48B8474E48FCF720FC24
:10405000BDE8F84FFCF7D4BAD6F8003E23F00303CE
:10406000C6F8003E0AE70820FCF7C2FD69037FF5A9
:10407000ABAE8EE60820FCF72BFD4248FCF708FCAF
:10408000BDE8F84FFCF7BCBA03F1020A04EB8A035F
:104090005B689B69D3E901971868A0EB090EC2B170
:1040A00001F5805C00239807394601D1DCF80080D7
:1040B0009E4503F1010304D901F8018B4FEA18284A
:1040C0000F469A42EFD104EB8A0463689B69D3E9F7
:1040D000019717444A44C3E9012739E60720FCF752
:1040E00087FD51E60020FCF783FDA6037FF53AAE7D
:1040F0000120FCF77DFD60037FF537AE0220FCF761
:1041000077FD21037FF534AE0320FCF771FDE20259
:104110007FF531AE0420FCF76BFDA3027FF52EAED8
:104120000520FCF765FD67027FF52BAE0620FCF746
:104130005FFD26E60720FCF7CBFC42E60620FCF7F5
:10414000C7FC3BE60520FCF7C3FC34E60420FCF783
:10415000BFFC2DE60320FCF7BBFC26E60220FCF7A3
:10416000B7FC1FE60120FCF7B3FC18E60020FCF7C3
:10417000AFFC11E610000C0040800010A84E0008B3
:10418000A8070024E04C0008000000000000000028
:104190000B4810B5FCF794FB0A4B0B485968C26FEB
:1041A000890D01F03D018C05DC6012B1D0F8800072
:1041B00090470348FCF76CFBBDE81040FCF720BAC1
:1041C000B04C0008000402404C1200240000000023
:1041D0000B4810B5FCF774FB0A4B0B485968426F4B
:1041E000090C01F03D010C04DC600AB1806F9047BE
:1041F0000348FCF74DFBBDE81040FCF701BA00BFD7
:10420000A44C0008000402404C12002400000000EE
:104210000B4810B5FCF754FB0A4B0B485968C26EAB
:10422000890901F03D018C01DC600AB1006F904703
:104230000348FCF72DFBBDE81040FCF7E1B900BFD7
:10424000984C0008000402404C12002400000000BA
:104250000A4808B5FCF734FB094B0A485968426E16
:1042600001F03D01D9600AB1806E90470348FCF728
:104270000FFBBDE80840FCF7C3B900BF8C4C000839
:10428000000402404C120024000000000000000066
:104290000B4810B5FCF714FB0A4B0B481968C26DAC
:1042A000890D01F03D018C059C600AB1006E9047BC
:1042B0000348FCF7EDFABDE81040FCF7A1B900BFD8
:1042C000804C0008000402404C1200240000000052
:1042D0000B4810B5FCF7F4FA0A4B0B481968426D0D
:1042E000090C01F03D010C049C600AB1806D9047FF
:1042F0000348FCF7CDFABDE81040FCF781B900BFD8
:10430000744C0008000402404C120024000000001D
:104310000B4810B5FCF7D4FA0A4B0B481968C26C6D
:10432000890901F03D018C019C600AB1006D904744
:104330000348FCF7ADFABDE81040FCF761B900BFD7
:10434000684C0008000402404C12002400000000E9
:104350000A4808B5FCF7B4FA094B0A481968426CD8
:1043600001F03D0199600AB1806C90470348FCF769
:104370008FFABDE80840FCF743B900BF5C4C000869
:10438000000402404C120024000000000000000065
:104390000B4810B5FCF794FA0A4B0B485968C26BEE
:1043A000890D01F03D018C05DC600AB1006C90477D
:1043B0000348FCF76DFABDE81040FCF721B900BFD7
:1043C000444C0008000002404C1200240000000091
:1043D0000B4810B5FCF774FA0A4B0B485968426B4E
:1043E000090C01F03D010C04DC600AB1806B9047C0
:1043F0000348FCF74DFABDE81040FCF701B900BFD7
:10440000204C0008000002404C1200240000000074
:104410000B4810B5FCF754FA0A4B0B485968C26AAE
:10442000890901F03D018C01DC600AB1006B904705
:104430000348FCF72DFABDE81040FCF7E1B800BFD7
:10444000FC4B0008000002404C1200240000000059
:104450000A4808B5FCF734FA094B0A485968426A19
:1044600001F03D01D9600AB1806A90470348FCF72A
:104470000FFABDE80840FCF7C3B800BFE44B0008E2
:10448000000002404C120024000000000000000068
:104490000B4810B5FCF714FA0A4B0B481968C269AF
:1044A000890D01F03D018C059C600AB1006A9047BE
:1044B0000348FCF7EDF9BDE81040FCF7A1B800BFD8
:1044C000CC4B0008000002404C1200240000000009
:1044D0000B4810B5FCF7F4F90A4B0B481968426910
:1044E000090C01F03D010C049C600AB18069904701
:1044F0000348FCF7CDF9BDE81040FCF781B800BFD8
:10450000B44B0008000002404C12002400000000E0
:104510000B4810B5FCF7D4F90A4B0B481968C26870
:10452000890901F03D018C019C600AB10069904746
:104530000348FCF7ADF9BDE81040FCF761B800BFD7
:104540009C4B0008000002404C12002400000000B8
:104550000A4808B5FCF7B4F9094B0A4819684268DB
:1045600001F03D0199600AB1806890470348FCF76B
:104570008FF9BDE80840FCF743B800BF844B000842
:10458000000002404C120024000000000000000067
:104590000B4810B5FCF794F90A4B0B481968C26B2D
:1045A000090F01F00E010C075C600AB1006C904726
:1045B0000348FCF76DF9BDE81040FCF721B800BFD7
:1045C000504C000800540258440800240000000029
:1045D0000B4810B5FCF774F90A4B0B481968426B8D
:1045E000090E01F00E010C065C600AB1806B904769
:1045F0000348FCF74DF9BDE81040FCF701B800BFD7
:10460000384C000800540258440800240000000000
:104610000B4810B5FCF754F90A4B0B481968C26AED
:10462000090D01F00E010C055C600AB1006B9047AA
:104630000348FCF72DF9BDE81040FBF7E1BF00BFD0
:10464000144C0008005402584408002400000000E4
:104650000B4810B5FCF734F90A4B0B481968426A4D
:10466000090C01F00E010C045C600AB1806A9047ED
:104670000348FCF70DF9BDE81040FBF7C1BF00BFD0
:10468000F04B0008005402584408002400000000C9
:104690000B4810B5FCF714F90A4B0B481968C269AE
:1046A000090B01F00E010C035C600AB1006A90472F
:1046B0000348FCF7EDF8BDE81040FBF7A1BF00BFD1
:1046C000D84B0008005402584408002400000000A1
:1046D0000B4810B5FCF7F4F80A4B0B48196842690F
:1046E000090A01F00E010C025C600AB18069904772
:1046F0000348FCF7CDF8BDE81040FBF781BF00BFD1
:10470000C04B000800540258440800240000000078
:104710000B4810B5FCF7D4F80A4B0B481968C2686F
:10472000090901F00E010C015C600AB100699047B3
:104730000348FCF7ADF8BDE81040FBF761BF00BFD0
:10474000A84B000800540258440800240000000050
:104750000A4808B5FCF7B4F8094B0A4819684268DA
:1047600001F00E0159600AB1806890470348FCF7D8
:104770008FF8BDE80840FBF743BF00BF904B00082F
:10478000005402584408002400000000000000000B
:1047900031482DE9F843FCF793F84FF08040036966
:1047A000C2681340DAB29B076FEA0202026106D4C4
:1047B0002948FCF76DF8BDE8F843FBF721BF20233B
:1047C00083F31188254D476AAA6AEB69BE1A996876
:1047D000B1423DD8044605F11C094FF000082027DE
:1047E0000AE088F311881869884787F31188EB6914
:1047F00099688E420FD3AA6A18680A44761AD96853
:104800004845AA62C0F80490E861C3F80C80E8D17A
:10481000C4F80C80E5E7676AAA6ABE1A8E42DED247
:104820004B450BD099684FF08040AF62C91B0A44DA
:10483000022A2CBFBF1802379A604763002383F314
:1048400011880548FCF724F8BDE8F843FBF7D8BE0B
:1048500005F11C09E4E700BFD44C000888080024D7
:104860002DE9F047614C6248FCF72AF8666D37681D
:10487000F5692B07356240F09280E80500F18380EE
:10488000A90639D5DFF86C814FF0200A08F1080934
:1048900018E0D4E90832934225D06269591C0132EC
:1048A000216262611D70D4E907329A4201D3A36983
:1048B00023624846FBF77CFF002383F31188F569E8
:1048C000AA0619D58AF31188726A94F85C50636954
:1048D0001540002BDDD104214046FBF779FFD4E9D8
:1048E00008329342D9D16269002AD6D04FF4806150
:1048F0004046FBF76DFFDFE73B062FD528062DD599
:104900004FF02009DFF8F0A04FF0000813E0A26B91
:10491000581C216C0132A0648842A2631D7801D327
:10492000E36BA3645046FBF743FFB56288F311883D
:10493000F5692B0612D589F31188D4E911239A421F
:10494000E5D1A26B002AE2D008212A48FBF740FFFC
:1049500027F080030022336082F3118879060BD59B
:104960006A0609D5202383F31188D4E911239A42DA
:1049700030D0002383F311881D48FBF789FFBDE881
:10498000F047FBF73DBE202383F311884FF40071FD
:104990001848FBF71DFF002383F3118870E715F01B
:1049A000080118BF8021E80748BF41F02001AA078D
:1049B00048BF41F040016B074FF0200348BF41F46E
:1049C000807183F311880B48FBF702FF002383F308
:1049D000118852E7A36B002BCBD027F040071021A2
:1049E0000448FBF7F5FE3760C3E700BF080000246A
:1049F000C84C00080C00002438000024000000000F
:104A000008B50D48FBF75CFF0C4B00222021186C09
:104A1000C26381F31188D86B18B1DA634262FBF785
:104A200097FE002383F311880348FBF731FFBDE8AD
:104A30000840FBF7E5BD00BFBC4C0008680000243F
:104A4000F0B4144F0026144D07F1700C1348144BAA
:104A50001449984211D904391A4651F8044F42F8C2
:104A6000044B9042F9D8421ED21A22F003020432BB
:104A700013449D4203D943F8046B9D42FBD867451C
:104A800005D0D7E90413D7E906051037E1E7F0BCF4
:104A9000704700BF244F00088014002480140024B5
:104AA00080140024305100080000000000000000C5
:104AB000FEE700BF00000000000000000000000052
:104AC000704700BF00000000000000000000000070
:104AD00070B4BFF34F8FBFF36F8F1B4B0021C3F830
:104AE0005012BFF34F8FBFF36F8F5A6942F40032F9
:104AF0005A61BFF34F8FBFF36F8FC3F88410BFF3BA
:104B00004F8FD3F8801043F6E074C1F34E32C1F3F7
:104B1000C901520102EA0405084645EA80760138D7
:104B2000C3F86062461CF8D1203A12F1200FF1D18F
:104B3000BFF34F8F5A6942F480325A61BFF34F8FEF
:0C4B4000BFF36F8F70BC704700ED00E009
:104B4C00626C696E6B65720048656C6C6F20776F78
:104B5C00726C642066726F6D20555342200D0A00F2
:104B6C00286E756C6C29000069646C65000000008F
:104B7C006E6F6E616D650000566563746F723643BF
:104B8C0000000000566563746F723234340000000C
:104B9C00566563746F72373000000000566563749D
:104BAC006F72323438000000566563746F7237349C
:104BBC0000000000566563746F72323443000000CD
:104BCC00566563746F723738000000005665637465
:104BDC006F72323530000000566563746F72374364
:104BEC0000000000566563746F72323534000000AB
:104BFC00566563746F72383000000000566563743C
:104C0C006F72434300000000566563746F72323557
:104C1C0038000000566563746F7238340000000071
:104C2C00566563746F7231393800000056656374D1
:104C3C006F72323543000000566563746F724643E1
:104C4C0000000000566563746F723236300000004D
:104C5C00566563746F7231323000000056656374B0
:104C6C006F72313234000000566563746F723132EA
:104C7C0038000000566563746F72313243000000D7
:104C8C00566563746F72313330000000566563747F
:104C9C006F72313530000000566563746F723135B8
:104CAC0034000000566563746F72313538000000B3
:104CBC00566563746F72313034000000566563744E
:104CCC006F72444300000000566563746F7242308B
:104CDC0000000000566563746F72314434000000AC
:104CEC0000540258085402580000000000580258A2
:104CFC0000810000005402581C54025804000000AB
:104D0C0004580258018200000054025830540258D2
:104D1C000800000008580258028300000054025892
:104D2C00445402580C0000000C5802580384000034
:104D3C0000540258585402581000000010580258E1
:104D4C0004850000005402586C54025814000000F2
:104D5C00145802580586000000540258805402581A
:104D6C00180000001858025806870000005402581A
:104D7C00945402581C0000001C580258078800006C
:104D8C0010000240080002400008024000000B0026
:104D9C0028000240080002400408024006010C00F2
:104DAC0040000240080002400808024010020D00BA
:104DBC0058000240080002400C08024016030E0086
:104DCC00700002400C0002401008024000040F006A
:104DDC00880002400C000240140802400605100036
:104DEC00A00002400C0002401808024010061100FE
:104DFC00B80002400C0002401C08024016072F00AD
:104E0C001004024008040240200802400008380048
:104E1C002804024008040240240802400609390014
:104E2C00400402400804024028080240100A3A00DC
:104E3C0058040240080402402C080240160B3B00A8
:104E4C00700402400C04024030080240000C3C008C
:104E5C00880402400C04024034080240060D440051
:104E6C00A00402400C04024038080240100E450019
:104E7C00B80402400C0402403C080240160F4600E5
:104E8C00000000006D61696E001641300404440896
:104E9C000C1014181C20212200000000000000003F
:104EAC00411E0008310D0008910C00084000400024
:104EBC00D0120024D012002401000000E0120024C3
:104ECC00020000000000000011110008310F000862
:104EDC0040004000E8120024F812002402000000F8
:104EEC00000000000300000000000000410E00085C
:104EFC000000000010000000081300240000000057
:104F0C0001000000000000008000000040010000D3
:104F1C00080000000100000030510008801400243B
:104F2C00801400248014002430510008000000304C
:104F3C00000000300000003030510008000000304C
:104F4C000000003000000030305100080000043038
:104F5C00000004300000043030510008000000381C
:104F6C000000003800000038305100080008002014
:104F7C00000800200008002030510008000000004C
:104F8C0000000000000000003051000800008038D4
:104F9C000000803800008038000000003109000853
:104FAC0021090008012A0008211700081123000814
:104FBC0071220008B10F0008910F0008A807002407
:104FCC000101020021290008C1050008510E00084A
:104FDC008110000843000000E84F0008090243005C
:104FEC00020100C032090400000102020100052484
:104FFC00001001052401000104240202052406000E
:10500C0001070582030800FF09040100020A0000E1
:10501C000007050102400000070581024000000066
:10502C001200000034500008120110010200004070
:10503C008304405700020102030100000403090429
:10504C002603530054004D006900630072006F008A
:10505C0065006C0065006300740072006F006E00E8
:10506C0069006300730000003803430068006900A6
:10507C00620069004F0053002F00520054002000C2
:10508C005600690072007400750061006C0020000D
:10509C0043004F004D00200050006F007200740060
:1050AC0008033600310031000400000048500008AD
:1050BC00260000004C500008380000007450000816
:1050CC0008000000AC50000800000000A1240008FB
:1050DC00A125000831140008A114000821140008AF
:1050EC00911400089124000891250008A10E0008D5
:1050FC0000000000A1260008A12700087115000877
:10510C0031160008611500082116000891260008C8
:0C511C0091270008B10E00080000000000
:085128000096000000000800E1
:040000050800037973
:00000001FF
